{
  "_format": "hh-sol-artifact-1",
  "contractName": "Message",
  "sourceName": "contracts/Message.sol",
  "abi": [
    {
      "inputs": [
        {
          "internalType": "string",
          "name": "_msg",
          "type": "string"
        }
      ],
      "stateMutability": "nonpayable",
      "type": "constructor"
    },
    {
      "anonymous": false,
      "inputs": [
        {
          "indexed": false,
          "internalType": "string",
          "name": "oldString",
          "type": "string"
        },
        {
          "indexed": false,
          "internalType": "string",
          "name": "newString",
          "type": "string"
        }
      ],
      "name": "Updatedmessage",
      "type": "event"
    },
    {
      "inputs": [],
      "name": "message",
      "outputs": [
        {
          "internalType": "string",
          "name": "",
          "type": "string"
        }
      ],
      "stateMutability": "view",
      "type": "function"
    },
    {
      "inputs": [],
      "name": "readMessage",
      "outputs": [
        {
          "internalType": "string",
          "name": "",
          "type": "string"
        }
      ],
      "stateMutability": "view",
      "type": "function"
    },
    {
      "inputs": [
        {
          "internalType": "string",
          "name": "_newMsg",
          "type": "string"
        }
      ],
      "name": "updateMessage",
      "outputs": [],
      "stateMutability": "nonpayable",
      "type": "function"
    }
  ],
  "bytecode": "0x608060405234801561001057600080fd5b506040516106da3803806106da83398101604081905261002f916100e2565b8051610042906000906020840190610049565b50506101f5565b828054610055906101a4565b90600052602060002090601f01602090048101928261007757600085556100bd565b82601f1061009057805160ff19168380011785556100bd565b828001600101855582156100bd579182015b828111156100bd5782518255916020019190600101906100a2565b506100c99291506100cd565b5090565b5b808211156100c957600081556001016100ce565b600060208083850312156100f4578182fd5b82516001600160401b038082111561010a578384fd5b818501915085601f83011261011d578384fd5b81518181111561012f5761012f6101df565b604051601f8201601f1916810185018381118282101715610152576101526101df565b6040528181528382018501881015610168578586fd5b8592505b81831015610189578383018501518184018601529184019161016c565b8183111561019957858583830101525b979650505050505050565b6002810460018216806101b857607f821691505b602082108114156101d957634e487b7160e01b600052602260045260246000fd5b50919050565b634e487b7160e01b600052604160045260246000fd5b6104d6806102046000396000f3fe608060405234801561001057600080fd5b50600436106100415760003560e01c8063031d5d01146100465780631923be2414610064578063e21f37ce14610079575b600080fd5b61004e610081565b60405161005b9190610407565b60405180910390f35b61007761007236600461031b565b610113565b005b61004e6101f4565b6060600080546100909061044f565b80601f01602080910402602001604051908101604052809291908181526020018280546100bc9061044f565b80156101095780601f106100de57610100808354040283529160200191610109565b820191906000526020600020905b8154815290600101906020018083116100ec57829003601f168201915b5050505050905090565b60008080546101219061044f565b80601f016020809104026020016040519081016040528092919081815260200182805461014d9061044f565b801561019a5780601f1061016f5761010080835404028352916020019161019a565b820191906000526020600020905b81548152906001019060200180831161017d57829003601f168201915b505085519394506101b693600093506020870192509050610282565b507fb9e3f36bdf39c5dcaa087b6099a47916c1a5b39577ab9203f5b748dc5338bc3981836040516101e8929190610421565b60405180910390a15050565b600080546102019061044f565b80601f016020809104026020016040519081016040528092919081815260200182805461022d9061044f565b801561027a5780601f1061024f5761010080835404028352916020019161027a565b820191906000526020600020905b81548152906001019060200180831161025d57829003601f168201915b505050505081565b82805461028e9061044f565b90600052602060002090601f0160209004810192826102b057600085556102f6565b82601f106102c957805160ff19168380011785556102f6565b828001600101855582156102f6579182015b828111156102f65782518255916020019190600101906102db565b50610302929150610306565b5090565b5b808211156103025760008155600101610307565b6000602080838503121561032d578182fd5b823567ffffffffffffffff80821115610344578384fd5b818501915085601f830112610357578384fd5b8135818111156103695761036961048a565b604051601f8201601f191681018501838111828210171561038c5761038c61048a565b60405281815283820185018810156103a2578586fd5b818585018683013790810190930193909352509392505050565b60008151808452815b818110156103e1576020818501810151868301820152016103c5565b818111156103f25782602083870101525b50601f01601f19169290920160200192915050565b60006020825261041a60208301846103bc565b9392505050565b60006040825261043460408301856103bc565b828103602084015261044681856103bc565b95945050505050565b60028104600182168061046357607f821691505b6020821081141561048457634e487b7160e01b600052602260045260246000fd5b50919050565b634e487b7160e01b600052604160045260246000fdfea2646970667358221220e6d0bb83be45c1f1a84c98201afb10c59ed0241ad8210d8c18d7d914556ec73c64736f6c63430008000033",
  "linkReferences": {},
  "deployedLinkReferences": {}
}